:020000040800F2
:10400000FFFF01200103030815FC000817FC00084E
:1040100045FD00085DFD000875FD0008000000007A
:10402000000000000000000000000000B177000860
:104030008DFD0008000000005178000811FC000808
:104040008103030881030308810303088103030834
:10405000810303088103030839FA000859FA0008AC
:1040600079FA000899FA0008B5FA0008491B010816
:10407000810303086D1B0108B9D600084DD600085E
:10408000D5110108C927010881030308810303082A
:10409000810303088103030881030308DDFA000894
:1040A00081030308810303088103030881030308D4
:1040B0008103030881030308810303083D1B0108F2
:1040C000311B0108810303088103030881030308EE
:1040D00081030308810303081928010879270108CF
:1040E00065FB0008810303088103030881030308BB
:1040F00081030308452A010881030308810303089B
:104100008103030881030308810303088103030873
:10411000810303088103030881030308E56C010898
:104120004D6E02088103030881030308810303081D
:104130008103030881030308810303088103030843
:104140008103030881030308810303081D97000806
:10415000E16D020881030308E1250108DD2501085E
:10416000611B0108551B0108810303088103030833
:104170008103030881030308810303088103030803
:08418000810303088103030819
:1041900081F0004102E000BF83F0004330B54FEAF8
:1041A00041044FEA430594EA050F08BF90EA020F65
:1041B0001FBF54EA000C55EA020C7FEA645C7FEAF8
:1041C000655C00F0E2804FEA5454D4EB5555B8BF1B
:1041D0006D420CDD2C4480EA020281EA030382EA8C
:1041E000000083EA010180EA020281EA0303362D1E
:1041F00088BF30BD11F0004F4FEA01314FF4801CF1
:104200004CEA113102D0404261EB410113F0004F02
:104210004FEA03334CEA133302D0524263EB4303B9
:1042200094EA050F00F0A780A4F10104D5F1200E57
:104230000DDB02FA0EFC22FA05F2801841F10001B2
:1042400003FA0EF2801843FA05F359410EE0A5F186
:1042500020050EF1200E012A03FA0EFC28BF4CF0B7
:10426000020C43FA05F3C01851EBE37101F000456D
:1042700007D54FF0000EDCF1000C7EEB00006EEB7A
:104280000101B1F5801F1BD3B1F5001F0CD3490804
:104290005FEA30004FEA3C0C04F101044FEA44525B
:1042A00012F5800F80F09A80BCF1004F08BF5FEAE2
:1042B000500C50F1000041EB045141EA050130BDC2
:1042C0005FEA4C0C404141EB010111F4801FA4F165
:1042D0000104E9D191F0000F04BF01460020B1FABA
:1042E00081F308BF2033A3F10B03B3F120020CDAF2
:1042F0000C3208DD02F1140CC2F10C0201FA0CF0D0
:1043000021FA02F10CE002F11402D8BFC2F1200C34
:1043100001FA02F120FA0CFCDCBF41EA0C019040EA
:10432000E41AA2BF01EB0451294330BD6FEA040433
:104330001F3C1CDA0C340EDC04F11404C4F120021E
:1043400020FA04F001FA02F340EA030021FA04F330
:1043500045EA030130BDC4F10C04C4F1200220FA87
:1043600002F001FA04F340EA0300294630BD21FAC5
:1043700004F0294630BD94F0000F83F4801306BF8B
:1043800081F480110134013D4EE77FEA645C18BF7F
:104390007FEA655C29D094EA050F08BF90EA020F16
:1043A00005D054EA000C04BF1946104630BD91EA0E
:1043B000030F1EBF0021002030BD5FEA545C05D111
:1043C0004000494128BF41F0004130BD14F5800450
:1043D0003CBF01F5801130BD01F0004545F0FE41C4
:1043E00041F470014FF0000030BD7FEA645C1ABFF9
:1043F000194610467FEA655C1CBF0B46024650EA30
:10440000013406BF52EA033591EA030F41F400215B
:1044100030BD00BF90F0000F04BF0021704730B5E1
:104420004FF4806404F132044FF000054FF00001B6
:1044300050E700BF90F0000F04BF0021704730B577
:104440004FF4806404F1320410F0004548BF40424C
:104450004FF000013EE700BF42004FEAE2014FEAA1
:1044600031014FEA02701FBF12F07F4393F07F4F7C
:1044700081F06051704732F07F4208BF704793F07F
:104480007F4F04BF41F40021704730B54FF4607492
:1044900001F0004521F000411CE700BF50EA010295
:1044A00008BF704730B54FF000050AE050EA01023E
:1044B00008BF704730B511F0004502D5404261EBAE
:1044C00041014FF4806404F132045FEA915C3FF4EF
:1044D000D8AE4FF003025FEADC0C18BF03325FEA8C
:1044E000DC0C18BF033202EBDC02C2F1200300FA3D
:1044F00003FC20FA02F001FA03FE40EA0E0021FA62
:1045000002F11444BDE600BF70B54FF0FF0C4CF44F
:10451000E06C1CEA11541DBF1CEA135594EA0C0F01
:1045200095EA0C0F00F0DEF82C4481EA030621EA3C
:104530004C5123EA4C5350EA013518BF52EA033577
:1045400041F4801143F4801338D0A0FB02CE4FF029
:104550000005E1FB02E506F00042E0FB03E54FF059
:104560000006E1FB03569CF0000F18BF4EF0010E51
:10457000A4F1FF04B6F5007F64F5407404D25FEA4D
:104580004E0E6D4146EB060642EAC62141EA555100
:104590004FEAC52040EA5E504FEACE2EB4F1FD0C42
:1045A00088BFBCF5E06F1ED8BEF1004F08BF5FEAC0
:1045B000500E50F1000041EB045170BD06F0004672
:1045C00046EA010140EA020081EA0301B4EB5C041F
:1045D000C2BFD4EB0C0541EA045170BD41F4801117
:1045E0004FF0000E013C00F3AB8014F1360FDEBF3C
:1045F000002001F0004170BDC4F10004203C35DA18
:104600000C341BDC04F11404C4F1200500FA05F39A
:1046100020FA04F001FA05F240EA020001F000423B
:1046200021F0004110EBD37021FA04F642EB0601B1
:104630005EEA430E08BF20EAD37070BDC4F10C04DB
:10464000C4F1200500FA04F320FA05F001FA04F29F
:1046500040EA020001F0004110EBD37041F100018B
:104660005EEA430E08BF20EAD37070BDC4F1200596
:1046700000FA05F24EEA020E20FA04F301FA05F2FE
:1046800043EA020321FA04F001F0004121FA04F2A6
:1046900020EA020000EBD3705EEA430E08BF20EA76
:1046A000D37070BD94F0000F0FD101F000464000B0
:1046B00041EB010111F4801F08BF013CF7D041EA32
:1046C000060195F0000F18BF704703F00046520036
:1046D00043EB030313F4801F08BF013DF7D043EA07
:1046E0000603704794EA0C0F0CEA135518BF95EABD
:1046F0000C0F0CD050EA410618BF52EA4306D1D144
:1047000081EA030101F000414FF0000070BD50EA62
:10471000410606BF1046194652EA430619D094EAEC
:104720000C0F02D150EA013613D195EA0C0F05D1D6
:1047300052EA03361CBF104619460AD181EA03012A
:1047400001F0004141F0FE4141F470014FF00000E2
:1047500070BD41F0FE4141F4780170BD70B54FF07D
:10476000FF0C4CF4E06C1CEA11541DBF1CEA1355FD
:1047700094EA0C0F95EA0C0F00F0A7F8A4EB0504DF
:1047800081EA030E52EA03354FEA013100F08880D6
:104790004FEA03334FF0805545EA131343EA12639F
:1047A0004FEA022245EA111545EA10654FEA002654
:1047B0000EF000419D4208BF964244F1FD0404F50D
:1047C000407402D25B084FEA3202B61A65EB030569
:1047D0005B084FEA32024FF480104FF4002CB6EB26
:1047E000020E75EB030E22BFB61A754640EA0C00A6
:1047F0005B084FEA3202B6EB020E75EB030E22BFE6
:10480000B61A754640EA5C005B084FEA3202B6EB26
:10481000020E75EB030E22BFB61A754640EA9C00E5
:104820005B084FEA3202B6EB020E75EB030E22BFB5
:10483000B61A754640EADC0055EA060E18D04FEA73
:10484000051545EA16754FEA06164FEAC30343EA13
:1048500052734FEAC2025FEA1C1CC0D111F4801FE0
:104860000BD141EA00014FF000004FF0004CB6E7D9
:1048700011F4801F04BF01430020B4F1FD0C88BF78
:10488000BCF5E06F3FF6AFAEB5EB030C04BFB6EB83
:10489000020C5FEA500C50F1000041EB045170BD76
:1048A0000EF0004E4EEA113114EB5C04C2BFD4EBA3
:1048B0000C0541EA045170BD41F480114FF0000E27
:1048C000013C90E645EA060E8DE60CEA135594EAA3
:1048D0000C0F08BF95EA0C0F3FF43BAF94EA0C0FA6
:1048E0000AD150EA01347FF434AF95EA0C0F7FF41B
:1048F00025AF104619462CE795EA0C0F06D152EA6F
:1049000003353FF4FDAE1046194622E750EA410652
:1049100018BF52EA43067FF4C5AE50EA41047FF463
:104920000DAF52EA43057FF4EBAE12E74FF0FF3CC8
:1049300006E000BF4FF0010C02E000BF4FF0010C99
:104940004DF804CD4FEA410C7FEA6C5C4FEA430C12
:1049500018BF7FEA6C5C1BD001B050EA410C0CBF61
:1049600052EA430C91EA030F02BF90EA020F0020C3
:10497000704710F1000F91EA030F58BF994208BF2A
:1049800090422CBFD8176FEAE37040F001007047E7
:104990004FEA410C7FEA6C5C02D150EA013C07D13E
:1049A0004FEA430C7FEA6C5CD6D152EA033CD3D089
:1049B0005DF8040B704700BF8446104662468C4683
:1049C0001946634600E000BF01B5FFF7B7FF0028B6
:1049D00048BF10F1000F01BD4DF808EDFFF7F4FFDF
:1049E0000CBF012000205DF808FB00BF4DF808ED6A
:1049F000FFF7EAFF34BF012000205DF808FB00BF8D
:104A00004DF808EDFFF7E0FF94BF012000205DF8AE
:104A100008FB00BF4DF808EDFFF7CEFF94BF012063
:104A200000205DF808FB00BF4DF808EDFFF7C4FF5C
:104A300034BF012000205DF808FB00BF4FEA410CA5
:104A40007FEA6C5C02D150EA013C0AD14FEA430C88
:104A50007FEA6C5C02D152EA033C02D14FF00000C5
:104A600070474FF0010070474A0011D212F5001252
:104A700011D20DD56FF47873B3EB62520ED44FEAB6
:104A8000C12343F0004343EA505323FA02F0704736
:104A90004FF00000704750EA013002D14FF0FF3074
:104AA00070474FF0000070474FEA4102B2F1E04317
:104AB00024BFB3F5001CDCF1FE5C0DD901F0004C05
:104AC0004FEAC0024CEA5070B2F1004F40EB830055
:104AD00008BF20F00100704711F0804F21D113F181
:104AE0003872BCBF01F00040704741F480114FEABA
:104AF0005252C2F11802C2F1200C10FA0CF320FA43
:104B000002F018BF40F001004FEAC1234FEAD3235F
:104B100003FA0CFC40EA0C0023FA02F34FEA4303C9
:104B2000CCE77FEA625307D150EA01331EBF4FF052
:104B3000FE4040F44000704701F0004040F0FE406D
:104B400040F40000704700BF80F0004002E000BF6A
:104B500081F0004142001FBF5FEA410392EA030F68
:104B60007FEA226C7FEA236C6AD04FEA1262D2EBB2
:104B70001363C1BFD218414048404140B8BF5B42B7
:104B8000192B88BF704710F0004F40F4000020F050
:104B90007F4018BF404211F0004F41F4000121F066
:104BA0007F4118BF494292EA030F3FD0A2F10102B0
:104BB00041FA03FC10EB0C00C3F1200301FA03F1EE
:104BC00000F0004302D5494260EB4000B0F5000F11
:104BD00013D3B0F1807F06D340084FEA310102F1D0
:104BE0000102FE2A51D2B1F1004F40EBC25008BF82
:104BF00020F0010040EA03007047490040EB00004C
:104C000010F4000FA2F10102EDD1B0FA80FCACF17A
:104C1000080CB2EB0C0200FA0CF0AABF00EBC25079
:104C200052421843BCBFD0401843704792F0000F67
:104C300081F4000106BF80F400000132013BB5E7BA
:104C40004FEA41037FEA226C18BF7FEA236C21D030
:104C500092EA030F04D092F0000F08BF0846704795
:104C600090EA010F1CBF0020704712F07F4F04D163
:104C7000400028BF40F00040704712F100723CBF76
:104C800000F50000704700F0004343F0FE4040F4A0
:104C9000000070477FEA226216BF08467FEA23635E
:104CA0000146420206BF5FEA412390EA010F40F449
:104CB000800070474FF0000304E000BF10F0004395
:104CC00048BF40425FEA000C08BF704743F096437C
:104CD00001464FF000001CE050EA010208BF704797
:104CE0004FF000030AE000BF50EA010208BF70471E
:104CF00011F0004302D5404261EB41015FEA010C33
:104D000002BF84460146002043F0B64308BFA3F12A
:104D10008053A3F50003BCFA8CF2083AA3EBC2530C
:104D200010DB01FA02FC634400FA02FCC2F120022B
:104D3000BCF1004F20FA02F243EB020008BF20F062
:104D40000100704702F1200201FA02FCC2F12002C8
:104D500050EA4C0021FA02F243EB020008BF20EABD
:104D6000DC70704753B94AB9002908BF00281CBF3E
:104D70004FF0FF314FF0FF3000F0F6B9ADF1080C05
:104D80006DE904CE00F08AF8DDF804E0DDE90223E5
:104D900004B07047430803F05533C01A830803F08A
:104DA000333300F03330184400EB101000F00F30B4
:104DB00000EB002000EB0040000E704707EE900A69
:104DC000F5EEC07AF1EE10FA01D400F021B808B582
:104DD00080F0004000F01CF8404261EB410108BD4A
:104DE00038B50022002304460D46FFF7FFFD28B921
:104DF00020462946BDE8384000F02EB8204605F18F
:104E0000004100F029F8404261EB410138BD00BF8C
:104E1000D0B5FFF721FB00220D4B06460F46FFF7EA
:104E200073FBFFF721FE0446FFF7F4FA0022094B5B
:104E3000FFF76AFB02460B4630463946FFF7ACF9EE
:104E4000FFF712FE0022234610431946D0BD00BFD3
:104E50000000F03D0000F041D0B500220D4B0646A9
:104E60000F46FFF751FBFFF7FFFD0446FFF7D2FAAD
:104E70000022094BFFF748FB02460B4630463946F5
:104E8000FFF78AF9FFF7F0FD002223461043194689
:104E9000D0BD00BF0000F03D0000F0412DE9F0471B
:104EA000089E04468846002B4BD18A42154667D996
:104EB000B2FA82F24AB1C2F1200701FA02F320FAF3
:104EC00007F7954047EA030894404FEA154E230C34
:104ED000B8FBFEF71FFA85FC0EFB178843EA084370
:104EE00007FB0CF1994209D9EB1807F1FF3080F06C
:104EF0001B81994240F21881023F2B445B1AA4B2F5
:104F0000B3FBFEF00EFB103344EA034400FB0CFC41
:104F1000A44509D92C1900F1FF3380F00781A4457D
:104F200040F2048102382C4440EA0740A4EB0C0410
:104F300000271EB1D4400023C6E900433946BDE82E
:104F4000F0878B4209D9002E00F0EB800027C6E9DC
:104F5000000138463946BDE8F087B3FA83F7002FE1
:104F600047D18B4202D3824200F2FA80841A61EB6D
:104F7000030301209846002EE0D0C6E90048DDE793
:104F800002B9FFDEB2FA82F2002A40F08F80491B9C
:104F90004FEA154E1FFA85F80127B1FBFEFC230CE2
:104FA0000EFB1C1143EA014308FB0CF1994207D99F
:104FB000EB180CF1FF3002D2994200F2CD8084460A
:104FC000591AA3B2B1FBFEF00EFB101443EA0444DD
:104FD00008FB00F8A04507D92C1900F1FF3302D2D5
:104FE000A04500F2B6801846A4EB080440EA0C4045
:104FF0009FE7C7F1200CBB4022FA0CFE4EEA030EDD
:1050000001FA07F420FA0CF521FA0CF34FEA1E48D6
:105010002543B3FBF8F92C0C08FB19331FFA8EFA61
:1050200044EA034309FB0AF49C4202FA07F200FA3D
:1050300007F10BD91EEB030309F1FF3080F08780E5
:105040009C4240F28480A9F1020973441B1BADB25B
:10505000B3FBF8F008FB103345EA034400FB0AFAFF
:10506000A24508D91EEB040400F1FF336BD2A24520
:1050700069D90238744440EA0940A0FB0289A4EBD4
:105080000A044C45C2464B4654D351D0002E69D039
:10509000B1EB0A0564EB030404FA0CFCFD40FC4090
:1050A0004CEA0505C6E90054002747E7C2F1200392
:1050B00020FA03F7954001FA02F021FA03F34FEAD0
:1050C000154E3843010CB3FBFEF71FFA85F80EFBB3
:1050D000173341EA034107FB08F38B4204FA02F459
:1050E00007D9691807F1FF3C2FD28B422DD9023F17
:1050F0002944CB1A81B2B3FBFEF00EFB103341EA18
:10510000034100FB08F38B4207D9691800F1FF3C0B
:1051100017D28B4215D902382944C91A40EA0747E9
:105120003BE73746304609E70746E7E61846FBE621
:105130004145ABD2B8EB020A69EB0E0201381346C7
:10514000A4E76046E9E7184695E76746D1E7814658
:105150007CE702382C4447E7ACF1020C2B442FE7E4
:10516000384608E73746E9E6704700BF10F8012BDC
:1051700011F8013B012A28BF9A42F7D0D01A704794
:10518000034613F8012B002AFBD1181A0138704787
:1051900000F108034FF0FF324360C0E902230361CE
:1051A00000230360704700230361704743684B602E
:1051B0009A688A609A68516099600861036801334F
:1051C000036070470A68531C30B50AD103695A68F6
:1051D0004A6091608B605960086103680133036025
:1051E00030BD00F108035C6825689542EFD823467E
:1051F000F9E7D0E9012103699160D0E9011251601A
:105200005A68824204BF82685A60002202611A68AA
:10521000013A1A60186870472DE9F041044602F01F
:10522000D9FA334B334D1A68334E01321A602A686B
:10523000002A52D12C601B68012B28D12F48DFF89F
:10524000F8802F4FFFF7A4FF2E48FFF7A1FF2E484D
:10525000FFF79EFF2D48FFF79BFF2D48FFF798FFB4
:105260002C48FFF795FF4046FFF792FF3846FFF7BF
:105270008FFF2948FFF78CFF2848FFF789FF284850
:10528000FFF786FF274BC3F80080274B1F60274A94
:1052900027491368086801331360E26A2364012315
:1052A000934003430B60154B142000FB0230211D7B
:1052B000FFF77CFF02F0B0FA336863B12B68DA6A5B
:1052C000E36A9A4207D21B4B4FF080521A60BFF339
:1052D0004F8FBFF36F8FBDE8F0813368002BD6D1BD
:1052E0002B68DA6AE36A9A4298BF2C60CFE700BF66
:1052F000E4180020581800204419002064180020E9
:105300000C190020781800208C180020A01800200C
:10531000B4180020C8180020301900205C190020A3
:10532000481900205C18002060180020F0180020A8
:10533000F418002004ED00E0F8180020064A136875
:105340001968064B19B94FF0FF321A60704712689E
:10535000D2681268F9E700BF5C1800202419002009
:1053600010B5044628B940F216720949094827F0D9
:105370004BF96269084B9A4207D1A06A074B9842E1
:1053800003D0B0FA80F0400910BD0020FCE700BF58
:105390002445030858450308481900203019002007
:1053A0002DE9F047DDE909644FEA82094A460746DC
:1053B0000D46206BA52198462EF092FE236BA9F195
:1053C0000409994429F00709A5B36B1E04F13402BE
:1053D000093513F8011F02F8011B197809B1AB4216
:1053E000F7D1002384F83D30089D052D28BF052501
:1053F0004FF0000AE562A564201DC4F84CA0FFF739
:10540000D2FEC5F1060504F11800FFF7CCFE2461B9
:10541000A5616462C4E914AAC4F858A084F85CA029
:1054200042463946484602F0A9F9206006B1346088
:10543000BDE8F08784F83450D6E7000010B590F846
:105440005D3004463BB9006B02F00EF92046BDE822
:10545000104002F009B9012BF9D0022B07D040F619
:105460007A7203490348BDE8104027F0CDB810BD5B
:1054700024450308DE44030880B50D4C0D4F0E4D46
:10548000236813B915F032FBF9E702F0A3F9FB68C2
:10549000DE68301DFFF7ADFE2B68013B2B602368F3
:1054A000013B236002F0B8F93046FFF7C7FFE7E79A
:1054B000E81800205C190020E4180020F8B51B4B08
:1054C0001B4E1C680546306804300F46FFF791FEFE
:1054D000334640B93168174EC96A326801208840A6
:1054E00022EA000232606A1C07D137B119681248FB
:1054F0000431BDE8F840FFF759BE1A6864195460DA
:1055000007D30E4A10681968BDE8F8400431FFF768
:1055100059BE0B4A106819680431FFF753FE094B56
:105520001A68A24288BF1C60F8BD00BF7019002035
:1055300058180020F4180020481900206018002096
:105540005C180020241900202DE9F04387B0DDE924
:105550000F4506460F46904699462CB940F2432225
:1055600019491A4827F050F82DB94FF4117216490D
:10557000174827F049F860230493049B602B05D05B
:105580004FF413721049134827F03EF8049BB5B14D
:10559000BCB1022385F85D3005AB2C6301930E9BF3
:1055A000009342464B46394630460295FFF7F8FED7
:1055B0002846FFF731FE059807B0BDE8F08328467E
:1055C000FAE72046F8E700BF244503089E46030893
:1055D000B5460308CA4603082DE9F043074685B0DF
:1055E000900088461646994601F09AFF0546E8B1B4
:1055F000602001F095FF0446A8B1002380F85D30DB
:105600000D9B056301930C9B0290009332464B4621
:1056100041463846FFF7C4FE2046FFF7FDFD012056
:1056200005B0BDE8F083284602F01EF84FF0FF30C9
:10563000F6E7000070B50446274D02F0CBF804B938
:105640002C68261D3046FFF7D4FD60B9E06A234B75
:10565000142141435B5833B9214901220B68824030
:1056600023EA02030B60A36A1BB104F11800FFF7E1
:10567000C0FD1C4A1368013313602B68A34221D17B
:1056800031461948FFF792FD184A13680133136039
:1056900002F0C2F8164B1B689BB12B68A34210D1D5
:1056A000144B1B682BB140F2CD421349134826F02E
:1056B000ABFF134B4FF080521A60BFF34F8FBFF315
:1056C0006F8F70BD0F4A13682046013B1360FFF7D0
:1056D000B5FEFFF733FEDBE7581800206418002002
:1056E000F4180020F01800205C190020E8180020B1
:1056F00044190020EC18002024450308BF45030886
:1057000004ED00E0E4180020F8B5054628B940F2A1
:1057100064521749174826F077FF174B1B68AB42B6
:1057200020D002F057F8154B6C691F68144B1E68A7
:1057300002F072F8BC4217D0B44215D0114B9C4213
:1057400008D1AB6A83B995F85C30012B0CBF0220FD
:105750000320F8BD0C4B9C4208D0002C0CBF042049
:105760000120F6E70020F4E70220F2E70420F0E74A
:1057700024450308D8440308581800205C1800206A
:1057800060180020481900205C19002070B50446FC
:1057900028B94FF4E8621949194826F035FF194D28
:1057A0002B68A34229D044B302F014F82046FFF737
:1057B000D7FDF0B1261D3046FFF71BFD1249E26A06
:1057C00008680123934003430B60104B142000FB37
:1057D00002303146FFF7EAFC2B68E26ADB6A9A4244
:1057E00007D30B4B4FF080521A60BFF34F8FBFF3BC
:1057F0006F8FBDE8704002F00FB870BD24450308FC
:10580000FB45030858180020F418002064180020F5
:1058100004ED00E010B588B0002407AA06A905A889
:10582000CDE9054417F0BCFA059B0293069B079A45
:1058300018491948CDE900432346FFF785FE174B69
:105840001860E0B101F012FC01281AD14FF05F039B
:1058500083F31188BFF36F8FBFF34F8F104B4FF05F
:10586000FF321A600F4B18600F4B1C6011F0CCF91F
:105870000E4B1B685A6B0E4B1A6002F045F808B0CD
:1058800010BD0130FBD140F62A020A490A4826F031
:10589000BBFEF4E7134603087954000820190020E2
:1058A00024190020441900207019002058180020E5
:1058B000040000E02445030818460308024A136860
:1058C00001331360704700BFEC180020014B1868CB
:1058D000704700BF701900202DE9F84F3D4B3E4A3C
:1058E000196811603D4A1268002A6BD11C680134A6
:1058F0001C60A4B93A4D2B681B682BB140F6AC2252
:105900003849394826F080FE384B2A6819682960E2
:105910001A60374A136801331360FFF70FFD354DE6
:10592000354F2B689C424FF0000B12D23A68334B34
:10593000D16A14224A439A58022A314A126828BF6F
:105940004FF0010B002A18BF4FF0010B5846BDE87D
:10595000F88FDFF88CA0DFF8B090DAF8002012683A
:105960001AB94FF0FF322A60E0E7DAF80020D26877
:10597000D66871688C4201D22960D7E706F1040825
:105980004046FFF736FCB16A19B106F11800FFF77F
:1059900030FCF06AD9F80030012202FA00F1194314
:1059A000164BC9F800104FF0140C41460CFB0030A8
:1059B000FFF7FCFB3868F16AC26A914228BF4FF0DA
:1059C000010BCAE70F4A1368013313604FF0000B55
:1059D000BCE700BF70190020080000E0EC180020B0
:1059E0005C1800202445030886470308601800203F
:1059F00028190020241900205818002064180020BD
:105A0000741900202C190020F41800202DE9F84307
:105A10002F4C23682BB940F699022E492E4826F0C8
:105A2000F3FD01F0D7FE2368013B236024682CB10D
:105A3000002401F0F1FE2046BDE8F883274B1B68E7
:105A4000002BF5D0264D274EDFF8AC801FE0EB6829
:105A5000DC6804F1040904F11800FFF7CAFB4846AA
:105A6000FFF7C7FBE26A3168012707FA02F3142047
:105A70000B4300FB028049463360FFF797FB1A4B4C
:105A8000E26A1B68DB6A9A4201D3184B1F602B68DD
:105A9000002BDCD10CB1FFF751FC154D2C6844B143
:105AA000124E0127FFF718FF00B13760013CF9D112
:105AB0002C600E4B1B68002BBAD00E4B4FF080525F
:105AC0001A60BFF34F8FBFF36F8F0124B1E700BFA0
:105AD000EC18002024450308EB470308E4180020D5
:105AE00030190020F41800205818002074190020E4
:105AF0002C19002004ED00E06418002038B50C4695
:105B0000054628B940F2E2421A491B4826F07CFDBE
:105B10002CB940F2E3421749184826F075FD184B9E
:105B20001B682BB140F2E4421249164826F06CFD86
:105B3000FFF7C4FE144B2A68186814192CBF012102
:105B4000002182422C600CD961B9FFF75FFF38B9A0
:105B50000E4B4FF080521A60BFF34F8FBFF36F8F21
:105B600038BD09B9A042F0D20021201AFFF7A6FCE7
:105B7000EBE700BF2445030894450308A745030845
:105B8000EC180020BF4503087019002004ED00E068
:105B900010B5044640B90E4B4FF080521A60BFF367
:105BA0004F8FBFF36F8F10BD0A4B1B682BB14FF4A3
:105BB000A7620949094826F027FDFFF77FFE00216B
:105BC0002046FFF77BFCFFF721FF0028E3D0EAE740
:105BD00004ED00E0EC18002024450308BF4503084D
:105BE00038B50D46044608B9044B1C6801F0F2FDB7
:105BF0002565BDE8384001F00FBE00BF58180020F1
:105C000070B5214B1A68214B12B101221A6070BD88
:105C10001A6011F03FF81E4B1E4918601A680C6894
:105C20001D4EA24205D91D683068426D121B2A44E0
:105C300042651B680B60194B1C68B4FA84F4E4B22B
:105C4000C4F11F041423164D6343EB582BB940F6DF
:105C5000E7321449144826F0D7FC142202FB04F35F
:105C6000E91808334868406848602B44984204BFEC
:105C700043684B6002FB04546368DB68336033683D
:105C80005A6B0A4BC2E700BFEC18002074190020C1
:105C9000E0180020DC18002058180020F41800201C
:105CA000641800202445030849460308040000E066
:105CB00070B504462A4E01F08DFD04B93468251DE7
:105CC0002846FFF796FA60B9E06A264B1421414353
:105CD0005B5833B9244901220B68824023EA02034E
:105CE0000B60A36A1BB104F11800FFF782FA294682
:105CF0001E481F4DFFF75AFA94F85C30012B04BF81
:105D0000002384F85C3001F087FD2A682AB101F095
:105D100061FDFFF713FB01F07FFD3368A34212D151
:105D20002B688BB1134B1B682BB140F2EC6212490C
:105D3000124826F069FC124B4FF080521A60BFF3F4
:105D40004F8FBFF36F8F70BD084A11680D4A1268FC
:105D5000914201D13360F6E7BDE87040FFF750BFD4
:105D60005818002064180020F4180020481900205A
:105D700044190020EC18002024450308BF450308FF
:105D800004ED00E0E418002038B50D46044628B9BB
:105D900040F601420749084826F036FC074B1968CF
:105DA00020461831FFF70EFA28460121BDE8384099
:105DB000FFF784BB24450308D94503085818002081
:105DC00070B50E461446054628B94FF443620A4999
:105DD0000A4826F019FC0A4B196828461831FFF7C3
:105DE000E5F9002C21460CBF30464FF0FF30BDE8EE
:105DF0007040FFF763BB00BF24450308D945030883
:105E00005818002038B5C368DC682CB94FF44662D6
:105E10001549164826F0F8FB04F118052846FFF747
:105E2000E8F9134B1B68E3B9251D2846FFF7E1F994
:105E30001049E26A08680123934003430B600E4B4C
:105E40001420294600FB0230FFF7B0F90B4BE26A41
:105E50001B68DB6A9A4283BF094B0120186000204F
:105E600038BD29460748EFE724450308DC47030807
:105E7000EC180020F41800206418002058180020A6
:105E80007419002030190020034B1B680360034B7A
:105E90001B684360704700BF28190020701900205C
:105EA00070B50D46044628B940F6DB421549164840
:105EB00026F0AAFB2DB940F6DC421249134826F021
:105EC000A3FB01F087FC124B1A682B68591C16D0F3
:105ED0001048266800686168864208D0914206D85A
:105EE00000232B60012401F097FC204670BD521A5C
:105EF0009342F5D99B1A2B602046FFF7C5FF00247B
:105F0000F1E700BF2445030809460308904603084B
:105F10007019002028190020014B01221A607047D7
:105F20007419002070B50C461646054608B91B4A80
:105F30001568256005F134026260EA6A22612A6B05
:105F4000E2612A6CA260AA6C62616A6DA261052B93
:105F50001CD0124A1268AA420CD100232373D6B176
:105F6000296B0A46531A12F8010BA528FAD09B0890
:105F7000238470BD032B2373F1D1FFF79FFCAB6A21
:105F80000BB102232373FFF741FDE8E72846FFF733
:105F9000BBFB2073E3E72684EBE700BF5818002023
:105FA0002DE9F84F0D6881460C46924615B34B68B3
:105FB0005B684B6001F10807BB4204BFCB684B60D4
:105FC0004B68D3F80C8000254FF0240B63685B68A6
:105FD00063609F4204BFE36863606368DE680BFB35
:105FE0000591534601223046FFF79CFFB04505F16D
:105FF0000105EBD12846BDE8F88F00002DE9F843F4
:1060000005461746FFF75AFC1F4B1B688B4239D8D1
:106010004FF00008DFF884904446242609EB08017D
:1060200006FB04500122FFF7BBFFA8F1140818F18A
:10603000780F0444F2D1154B0222196806FB045074
:10604000FFF7AEFF124B04441968022206FB04500E
:10605000FFF7A6FF044404220E4906FB0450FFF795
:106060009FFF044406FB045003220B49FFF798FFEF
:10607000044417B110F00EFE3860FFF7C7FC20464D
:10608000BDE8F8830024F8E7E41800205C1800203D
:10609000601800205C19002048190020C818002052
:1060A000054B1B6833B1054B1B68002B0CBF02204E
:1060B000002070470120704744190020EC18002090
:1060C000F8B50446002831D0204AC36A1168C96A6D
:1060D0008B42164631D282691D4D002AA1BF32681B
:1060E000D26AC2F106028261142202FB03534269A2
:1060F0009A421DD1071D3846FFF77BF8154B30B982
:10610000E06A1A680121814022EA01021A603268BD
:106110001968D26AE262012404FA02F008431860A6
:106120001420394600FB0250FFF740F8204603E0F8
:106130003368DB6AC3620120F8BD1368806CDC6AD7
:10614000A0422CBF00200120F6E700BF5818002015
:1061500064180020F418002038B5044608B900205F
:1061600038BD1E4B1B68834205D041F22D021C49ED
:106170001C4826F049FAE36C2BB941F22E0218496B
:10618000194826F041FAE36CE16AA26C013B9142A6
:10619000E364E4D0002BE2D1251D2846FFF729F85F
:1061A000124A30B9E16A13680120884023EA0003EB
:1061B0001360A36CE362C3F10601A16111680124BD
:1061C00004FA03F008431060094A142000FB03207E
:1061D0002946FEF7EBFF2046C2E700BF5818002013
:1061E00024450308B1470308C7470308F4180020F3
:1061F0006418002070B50D460446002844D0C36CD6
:106200002BB941F27D022149214826F0FDF9A36C0A
:106210009D4238BF1D46E36AAB4235D0E36C012B8B
:1062200032D11C4B1B68A34205D141F29802174999
:10623000194826F0E9F9A269E36AE562002AA4BFD9
:10624000C5F10605A561154D142202FB03536269D1
:106250009A4219D1261D3046FEF7CBFFE46A104A58
:1062600028B913680120A04023EA000313601168D5
:106270000123A3400B4313601420314600FB04505C
:10628000BDE87040FEF792BF70BD00BF2445030813
:10629000C747030858180020E54503086418002084
:1062A000F4180020044B1A681AB11968CA6C01323C
:1062B000CA641868704700BF581800202DE9F041E3
:1062C0000F461546064628B141F242221B491C489A
:1062D00026F09AF91B4C01F07DFA06F116082368A6
:1062E00053F8283083B923683344012183F85C10C4
:1062F00055B12846FFF7E2F8134B4FF080521A6071
:10630000BFF34F8FBFF36F8F01F086FA01F062FA8F
:10631000236853F8285025B1236867B1002243F859
:10632000282020683044002380F85C3001F074FAA3
:106330002846BDE8F0816A1EF1E700BF2445030846
:106340005E4503085818002004ED00E0F8B50D463E
:106350001646044628B941F2E8322A492A4826F06E
:1063600053F92DB141F2E9322649284826F04CF97B
:1063700001F050FBEFF311874FF05F0383F31188B7
:10638000BFF36F8FBFF34F8F6319022104EB8505B5
:1063900093F85C2083F85C10AB6D012A03F10103D4
:1063A000AB6527D1A36A2BB141F20F4215491848BA
:1063B00026F02AF9174B1B68FBB9251D2846FEF766
:1063C00018FF1549E26A08680123934003430B60F4
:1063D000124B1420294600FB0230FEF7E7FE104B5B
:1063E000E26A1B68DB6A9A4204D9012306B1336072
:1063F0000C4A136087F31188F8BD04F118010A48AC
:10640000EBE700BF244503081B470308E3460308E6
:1064100048470308EC180020F418002064180020F6
:1064200058180020741900203019002010B50446B7
:1064300001F0D0F9A46B01F0EFF9B4FA84F040094F
:1064400010BD70B51546026C866B044642B90568EE
:106450009DB98068FFF780FEA5600136A66370BD18
:106460006DB940682DF031FE6368226C1344A26858
:106470006360934201D3236863600020EDE7C06846
:106480002DF023FE236CE26821685B421A448A42A5
:10649000E2603EBFA2689B18E360022DEDD10EB111
:1064A000013EEAE73046D8E7034610B41A6C0846C6
:1064B00062B1D9689C681144A142D96024BF1968AF
:1064C000D960D9685DF8044B2DF0FFBD5DF8044B31
:1064D000704770B5044601F07DF994F8455004F119
:1064E00024066DB2002D14DCFF2384F8453001F042
:1064F00093F901F06FF994F8445004F110066DB26D
:10650000002D12DCFF2384F84430BDE8704001F018
:1065100083B9636A002BE7D03046FFF773FC08B1FC
:10652000FFF7FAFC013D6DB2DCE72369002BE9D0EF
:106530003046FFF767FC08B1FFF7EEFC013D6DB296
:10654000DEE7000038B50D46044628B940F20D12CA
:1065500019491A4826F058F801F03CF9D4E90F31EE
:10656000226862604B43D0185B1A1344A060E3605A
:106570000020FF23A06384F8443084F8453095B9A7
:10658000236963B104F11000FFF73CFC38B10C4BF8
:106590004FF080521A60BFF34F8FBFF36F8F01F03F
:1065A0003BF9012038BD04F11000FEF7F1FD04F1C4
:1065B0002400FEF7EDFDF2E71249030846490308FF
:1065C00004ED00E0F7B50D4616461C46074628B90F
:1065D0004FF4A4721C491D4826F016F82CB94FF44C
:1065E000A67219491A4826F00FF836B32DB9164984
:1065F00018484FF4A87226F007F850230193019B26
:10660000502B05D040F259120F49134825F0FCFFDA
:10661000019B7CB10121002D08BF264684F846105D
:106620002660C4E90F752046FFF78CFF9DF82030E7
:1066300084F84C30204603B0F0BD002DDDD040F290
:10664000511201490548D6E7124903084F4803088B
:106650007148030887480308F7480308BF48030840
:10666000F8B50D461746064628B94FF4C3721549CA
:10667000154825F0C9FF05FB06F44DB1B4FBF5F351
:10668000B34205D04FF4C7720E49104825F0BCFF45
:1066900004F1500000F044FF044660B1002380F88C
:1066A000463055B92060C4E90F6501212046FFF747
:1066B00049FF84F84C702046F8BD00F15003036098
:1066C000F1E700BF124903084F48030800480308D8
:1066D0002DE9FF470F4601921E46044628B940F2B5
:1066E00009325749574825F08FFF3FB9236C2BB12A
:1066F00040F20A325249544825F086FF022E08D152
:10670000E36B012B05D040F20B324D494F4825F089
:106710007BFFFFF7C5FC38B9019B2BB140F20E326D
:1067200047494B4825F070FFDFF82891DFF82881B2
:106730004FF0000A01F04EF8A26BE36B9A4201D3CE
:10674000022E1ED1A36C434A43F480731360394672
:1067500032462046FFF775FE636A1BB104F1240040
:10676000FFF750FB38B13C4B4FF080521A60BFF33B
:106770004F8FBFF36F8F01F04FF8012004B0BDE8D9
:10678000F087019D45B901F047F8A36C314A43F405
:10679000007313600020F1E7BAF1000F02D102A8E4
:1067A000FFF772FB01F038F8FFF788F801F012F8F4
:1067B00094F84430FF2B04BF002384F8443094F84D
:1067C0004530FF2B04BF002384F8453001F024F846
:1067D00001A902A8FFF764FB58BB00F0FBFFA26B06
:1067E000E36B9A4214D101F017F8A36C43F4806371
:1067F000C9F80030019904F11000FFF7C5FA2046EE
:10680000FFF767FEFFF702F950B14FF0010A91E779
:1068100001F002F82046FFF75CFEFFF7F7F8F4E717
:106820004FF08053C8F80030BFF34F8FBFF36F8F26
:10683000EBE72046FFF74DFEFFF7E8F8A5E700BFBE
:1068400012490308464903084E4903089E490308B4
:10685000E54903080C0000E004ED00E013B5002258
:1068600000900B4601201146FFF7ACFE044638B1FC
:10687000002383600360C3601A461946FFF728FFB0
:10688000204602B010BD10B5024600210120FFF7DE
:10689000E7FE044638B1002383600360C3601A46F4
:1068A0001946FFF715FF204610BD00002DE9F843FB
:1068B000894690461F46044628B940F2DD322D49EC
:1068C0002D4825F0A1FEB9F1000F07D1236C2BB1A3
:1068D00040F2DE322749294825F096FE022F08D1E2
:1068E000E36B012B05D040F2DF322249244825F02A
:1068F0008BFE01F08FF8EFF311864FF05F0383F307
:106900001188BFF36F8FBFF34F8FA26BE36B9A4277
:1069100001D3022F2BD194F84550A36B6DB23A46A8
:1069200049462046FFF78DFD6B1C13D1636A0BB9F6
:1069300001200BE004F12400FFF764FA0028F7D0EF
:10694000B8F1000FF4D00120C8F8000086F31188D8
:10695000BDE8F8837F2D05D14FF48D6205490948C4
:1069600025F052FE01356DB284F84550E0E7002075
:10697000ECE700BF12490308464903084E490308E3
:106980009E4903083B4A0308F8B50F46044628B958
:106990004FF491622649274825F036FE236C2BB12F
:1069A00040F28C422249244825F02EFE23683BB950
:1069B000A3682BB140F291421D49204825F024FEE6
:1069C00001F028F8EFF311864FF05F0383F311888D
:1069D000BFF36F8FBFF34F8FA36BE26B9A4224D943
:1069E00094F8455001336DB2A3636B1C10D1636AF8
:1069F0000BB9012009E004F12400FFF703FA002895
:106A0000F7D0002FF5D00120386086F31188F8BD4B
:106A10007F2D05D14FF4A2620549094825F0F4FD08
:106A200001356DB284F84550E3E70020EDE700BF83
:106A30001249030846490308544A03086D4A0308EB
:106A40003B4A03082DE9F04385B00E460192044607
:106A500028B940F22C524949494825F0D5FD3EB9A4
:106A6000236C2BB14FF4A6624449464825F0CCFD77
:106A7000FFF716FB38B9019B2BB140F235523F4965
:106A8000414825F0C1FD414FDFF804814FF0000976
:106A900000F0A0FEA56BD5B131462046013DFFF7C1
:106AA00003FDA563236963B104F11000FFF7AAF9A0
:106AB00038B1374B4FF080521A60BFF34F8FBFF39E
:106AC0006F8F00F0A9FE012005B0BDE8F083019DA5
:106AD0001DB900F0A1FE0020F6E7B9F1000F02D1C8
:106AE00002A8FFF7D1F900F097FEFEF7E7FE00F0ED
:106AF00071FE94F84430FF2B04BF002384F8443027
:106B000094F84530FF2B04BF002384F8453000F093
:106B100083FE01A902A8FFF7C3F918BB2046FFF7BF
:106B200085FCC8B1A36C43F440733B60019904F148
:106B30002400FFF729F92046FFF7CBFCFEF766FF9C
:106B400038B94FF08053C8F80030BFF34F8FBFF310
:106B50006F8F4FF001099BE72046FFF7BAFCFEF765
:106B600055FFF6E72046FFF7B4FCFEF74FFF20463F
:106B7000FFF75CFC0028ECD0ADE700BF124903082A
:106B8000D44A0308E04A0308E54903080C0000E082
:106B900004ED00E02DE9FF410446019128B940F2DF
:106BA000BE525749574825F02FFD236C2BB140F2B8
:106BB000C2525349544825F027FDFFF771FA38B9FE
:106BC000019B2BB140F2C7524D49504825F01CFDA6
:106BD00000254F4FDFF83C812E4600F0FBFDA36BF4
:106BE000E3B1013BA363236813B9FFF75BFBA0602C
:106BF000236963B104F11000FFF704F938B1454B84
:106C00004FF080521A60BFF34F8FBFF36F8F00F0C9
:106C100003FE0125284604B0BDE8F081019B53B96D
:106C20002DB140F20D6236493B4825F0EDFC00F0F5
:106C3000F3FD0025EEE716B902A8FFF725F900F0ED
:106C4000EBFDFEF73BFE00F0C5FD94F84430FF2B52
:106C500004BF002384F8443094F84530FF2B04BF70
:106C6000002384F8453000F0D7FD01A902A8FFF702
:106C700017F960BB2046FFF7D9FB10B3A36C43F4B0
:106C800040733B6023683BB900F0A4FDA068FFF7A8
:106C900017FA054600F0C0FD019904F12400FFF742
:106CA00073F82046FFF715FCFEF7B0FE38B94FF039
:106CB0008053C8F80030BFF34F8FBFF36F8F0126AA
:106CC0008BE72046FFF705FCFEF7A0FEF7E720461E
:106CD000FFF7FFFBFEF79AFE2046FFF7A7FB002811
:106CE000EDD0002D96D000F075FD616A19B1236BCF
:106CF0001968C1F10601A068FFF77CFA97E700BFA9
:106D000012490308D44A0308544A0308E549030812
:106D10000C0000E004ED00E0974B03082DE9F04380
:106D200085B00F460192044628B940F29762444963
:106D3000444825F069FC3FB9236C2BB140F29B62BB
:106D40003F49414825F060FCFFF7AAF938B9019B9B
:106D50002BB14FF4D4623A493C4825F055FC00264B
:106D6000DFF8EC90B04600F035FDA36BD3B13946A7
:106D70002046E568FFF798FB636AE56063B104F1BC
:106D80002400FFF73FF838B1314B4FF080521A60C2
:106D9000BFF34F8FBFF36F8F00F03EFD012005B0B2
:106DA000BDE8F083019D1DB900F036FD0020F6E737
:106DB00016B902A8FFF768F800F02EFDFEF77EFD79
:106DC00000F008FD94F84430FF2B08BF84F844809D
:106DD00094F84530FF2B08BF84F8458000F01CFD77
:106DE00001A902A8FFF75CF8F0B92046FFF71EFBE7
:106DF000A0B1019904F12400FEF7C6FF2046FFF779
:106E000068FBFEF703FE38B94FF08053C9F8003035
:106E1000BFF34F8FBFF36F8F0126A4E72046FFF724
:106E200058FBFEF7F3FDF7E72046FFF752FBFEF7AE
:106E3000EDFD2046FFF7FAFA0028EDD0B6E700BFD7
:106E400012490308D44A0308E04A0308E549030845
:106E500004ED00E02DE9F84389469046054628B93F
:106E600040F22C722549264825F0CEFBB9F1000FDF
:106E700007D12B6C2BB140F22D722049214825F00F
:106E8000C3FB00F0C7FDEFF311874FF05F0383F3FF
:106E90001188BFF36F8FBFF34F8FAC6B5CB395F866
:106EA0004460494676B22846FFF7FEFA013C731C5F
:106EB000AC6313D12B690BB901200BE005F1100075
:106EC000FEF7A0FF0028F7D0B8F1000FF4D00120A2
:106ED000C8F8000087F31188BDE8F8837F2E05D13C
:106EE0004FF4EE620549084825F08EFB013676B274
:106EF00085F84460E0E72046ECE700BF124903084C
:106F000046490308334B03087E4B030810B504467B
:106F100028B940F2BE720549054825F075FB00F01E
:106F200059FCA46B00F078FC204610BD1249030800
:106F30004749030810B5044628B940F66E120549C2
:106F4000054825F061FBE06BA36BC31A584258411A
:106F500010BD00BF124903084649030830B5074A6F
:106F6000002352F8335002EBC3041DB942F833102A
:106F7000606030BD01330A2BF3D1FAE7683201209B
:106F800070B504460D46164600F024FC94F84430D3
:106F9000FF2B04BF002384F8443094F84530FF2BC6
:106FA00004BF002384F8453000F036FCA36B2BB9F6
:106FB0003246294604F12400FEF702FF2046BDE8D0
:106FC0007040FFF786BA0000F7B5114C00F002FCE4
:106FD0002568BDB90F4F104E3846FEF7D9F8304638
:106FE000FEF7D6F80D4B0E4A1F600E4B0C211E60AB
:106FF000142000950C4BFFF7E5FA206010B10B4907
:10700000FFF7ACFF03B0BDE8F04000F005BC00BFE7
:10701000EC1A0020701A0020841A00207819002031
:10702000801900207C1900209C1A0020B74B03080F
:10703000914208B5416000610AD8D21A83699A4228
:107040000DD2084B011D1868FEF7BCF8002008BDE2
:107050009A4201D2994202D2011D034BF3E701206B
:10706000F5E700BF7C1900207819002030B589B001
:10707000FFF7AAFF124B1B68CBB1002507AA06A990
:1070800005A8CDE9055515F095FE059B0293012451
:10709000069B019300942B46079A0A490A48FEF77B
:1070A00053FA0A4B186010B1204609B030BD0848A9
:1070B000084940F20D1225F0A7FA0020F5E700BFBD
:1070C000EC1A00202E4C0308A1720008F01A0020D0
:1070D0006B4C0308364C03082DE9F04180462C2008
:1070E0000D4616461F4600F01BFA0446D8B1002391
:1070F00080F828302DB940F25F120C490C4825F079
:1071000083FAFFF761FF069BC4F80080C4E90657C5
:107110002362201DFEF747F82EB194F8283043F083
:10712000040384F828302046BDE8F081364C03087B
:10713000E94B03082DE9F34198462C230193019B69
:10714000099C2C2B06460D46174605D04FF49F721E
:107150001649174825F058FA019B4CB94FF4A27212
:107160001249144825F050FA204602B0BDE8F081DB
:10717000022384F828302DB940F25F120B490E48E3
:1071800025F042FAFFF720FF089B2660C4E9065865
:107190002362201DFEF707F8002FE5D094F8283071
:1071A00043F0040384F82830DEE700BF364C0308C0
:1071B000054C0308204C0308E94B03082DE9FF4167
:1071C0000D4690461F46064628B94FF4C172104935
:1071D000104825F019FA104C206880B1052DCDE932
:1071E000015803960EDCFEF75BFF0023022808BF60
:1071F0000A9A206818BF1A4601A9FFF769FA04B075
:10720000BDE8F08100233A4601A9FFF74FFBF6E7FE
:10721000364C0308734C0308EC1A00202DE9F743A1
:107220001B4D1C4FDFF874802B681A6832B91A4A5C
:1072300011682960136003B0BDE8F083DB68DC6887
:107240001E6804F104094846FDF7D3FF236A20466F
:10725000984794F828305B07E6D5A36933449E42EB
:1072600006D26360246149462868FDF7ABFFDBE77F
:1072700000230093324619462046FFF79FFF00285F
:10728000D2D140F2A9323946404625F0BDF9CBE7CC
:1072900078190020364C03087C190020BC4B0308E9
:1072A0002DE9F04F794E7A4F89B0DFF8F8B1DBF86D
:1072B00000301D6845B3DB681D680024FEF7FEFA48
:1072C000FEF704FB734BDFF8E0811A6890428246B8
:1072D00099461BD318601CB36F4B1B681A68B2FA2F
:1072E00082F25209A5EB0A01D8F80000FFF748FE28
:1072F000FEF78CFB90B9694A4FF080531360BFF3DF
:107300004F8FBFF36F8F09E00124D7E70393FFF797
:1073100085FF039BC3F800A0FEF778FB604D58E0A3
:1073200085422FD8FEF772FBDBF80030DB68D3F81C
:107330000CB00BF10400FDF75CFF9BF828305807F8
:107340001BD5DBF818102B46524629445846FFF748
:107350006FFE68B1009423462A4621465846FFF73F
:107360002DFF28B94FF405723146384625F04CF907
:10737000DBF8203058469847D0E723F001038BF81C
:107380002830F5E72246ADE794F82830A16943F0AC
:10739000010384F82830069B5A4619442046FFF71B
:1073A00047FEB0B1236A2046984794F82830590721
:1073B0000FD5A269069900230A4400931946204676
:1073C000FFF7FCFE28B940F236323146384625F048
:1073D0001BF9002205A9D8F80000FFF733FB0028AD
:1073E0003FF463AF059B002BF3DB079C636913B18C
:1073F000201DFDF7FEFEFEF769FAD9F8003098422D
:10740000834601D2FFF70AFF059BC9F800B0092B9C
:10741000DFD801A252F823F08973000889730008AD
:1074200089730008417400084F7400087D740008D7
:107430008973000889730008417400084F740008BC
:1074400094F8283023F0010384F82830C1E794F839
:10745000283043F0010384F82830069BA3612BB940
:1074600040F24F323146284625F0CEF8A1695B46FE
:107470005A4659442046FFF7DBFDAAE794F8283026
:107480009A07DFD4204600F0EFF8A2E7364C030855
:10749000BC4B0308981A00207C19002004ED00E082
:1074A000C44B030878190020EC1A002010B50446DC
:1074B00028B940F20A420549054825F0A5F800F030
:1074C00089F9E46900F0A8F9204610BD364C03089C
:1074D000734C030810B5104B1A68824219D35C68CC
:1074E0001919884201BF4168184609195960416855
:1074F0004418A24208D1094C2468A24204D0526820
:107500000A4442601A6812680260984218BF186004
:1075100010BD1346E0E700BF3C900020F41A0020A5
:107520002DE9F8430446FEF7C9F94449444E0B6877
:10753000FBB9444A444D50071FBF0732434B22F06A
:1075400007029B1A08BF47F230531344083B23F04D
:107550000703002068602A60C3E90000981A0B60E6
:10756000C2E900303A4B18603A4B18604FF00043C4
:10757000336033681C4205D0FEF748FA0EF05EFD1A
:1075800000274CE0002CF7D0083462071CBF24F021
:1075900007040834002CEFD02E4B1A68A2429846FC
:1075A000EAD3294B1D686A68A24202D22A68002ADF
:1075B00040D10A68AA42DFD02A681F681A606B6847
:1075C0001B1B102B07F1080711D905EB040919F053
:1075D000070F04D0C5222049204825F015F86B6814
:1075E0001B1BC9F8043048466C60FFF773FF18494D
:1075F0006A68D8F8003008689B1A834238BF0B606D
:10760000C8F8003033681343154A6B6000232B60C1
:10761000136801331360FEF7F9F9002FAED07B0732
:1076200005D04FF483720C490E4824F0EDFF384624
:10763000BDE8F8832B461546B5E700BFF41A0020D5
:1076400028900020F81A00203C900020289000206C
:10765000309000202C9000207A4C0308C04C030886
:1076600034900020014D030838B50446002834D07A
:107670001A4D50F8041C2A68114205D14FF48D723E
:107680001749184824F0C0FF54F8083C2BB140F2C9
:107690001B121349144824F0B7FF54F8043C2A681D
:1076A00013421AD054F8081CB9B923EA020344F86B
:1076B000043CFEF703F90D4A54F8043C1168A4F1A8
:1076C00008000B441360FFF705FF094A13680133F4
:1076D0001360BDE83840FEF799B938BD2890002006
:1076E0007A4C0308474D0308784D03082C9000207E
:1076F00038900020014B1868704700BF2C90002084
:1077000008480068006880F308884FF0000080F3A4
:10771000148862B661B6BFF34F8FBFF36F8F00DF7F
:1077200000BF000008ED00E0DFF80C00016841F444
:10773000700101607047000088ED00E007B500238C
:1077400001930B4B1B68013304D0E52209490A4819
:1077500024F05AFF4FF05F0383F31188BFF36F8F5C
:10776000BFF34F8F019B002BFCD003B05DF804FBEF
:1077700000000020984D0308E14D03084FF080738E
:1077800040F8043C074B40F80C3C21F001016FF03D
:10779000020340F8081C40F8202C40F8243C4438F0
:1077A000704700BF3D7700080000000000000000A7
:1077B000074B19680868B0E8F04F80F30988BFF3F9
:1077C0006F8F4FF0000080F311887047AFF3008097
:1077D000581800204FF05F0383F31188BFF36F8FB9
:1077E000BFF34F8F084A13680133012B13600AD18E
:1077F000064B1B6813F0FF0F05D04FF4D2720449FB
:10780000044824F001BF70470000002004ED00E0B0
:10781000984D0308FB4D030810B5084C23682BB99D
:1078200040F2AB120649074824F0EEFE2368013B04
:1078300023600BB983F3118810BD00BF0000002046
:10784000984D0308304E03080000000000000000BF
:10785000EFF30980BFF36F8F154B1A681EF0100FFE
:1078600008BF20ED108A20E9F04F10602DE90900D3
:107870004FF05F0080F31188BFF34F8FBFF36F8F1E
:10788000FEF7BEF94FF0000080F3118809BC1968BB
:107890000868B0E8F04F1EF0100F08BFB0EC108A77
:1078A00080F30988BFF36F8F704700BFAFF300808C
:1078B0005818002008B54FF05F0383F31188BFF319
:1078C0006F8FBFF34F8FFEF707F818B1034B4FF0E0
:1078D00080521A60002383F3118808BD04ED00E094
:1078E000054B064900221A600A60054A05491160E5
:1078F00007221A60704700BF10E000E018E000E0C7
:1079000014E000E03F90020013B5354C354A216881
:10791000914205D14FF496723349344824F074FEF5
:107920002268334B9A4205D140F22D122E4931483C
:1079300024F06AFE304B314C1A78D2B20192FF2209
:107940001A701B782E4ADBB28DF803309DF8033095
:1079500003F05F0313700723236000229DF80310D8
:10796000090603F1FF3031D402B123602368032BF1
:1079700005D04FF4AB721C49224824F045FE236821
:107980001D4A1B0203F4E0632360019BDBB213700A
:107990001D4B1A6842F47F021A601A6842F07F4257
:1079A0001A60FFF79DFF194B00241C60FFF7BCFE17
:1079B000174A136843F040431360FFF7A1FEFEF738
:1079C0001FF9FFF7BBFE204602B010BD9DF8033043
:1079D0005B00DBB28DF8033001220346BEE700BF37
:1079E00000ED00E071C20F41984D0308AE4E030850
:1079F00070C20F41D14E030800E400E0489000201F
:107A000044900020F44E030820ED00E00000002028
:107A100034EF00E008B5EFF305830F2B0BD90E4AC6
:107A20009B5C0E4A12789A4205D94FF43F720C497A
:107A30000C4824F0E9FD0C4B0C4A1B68126803F457
:107A4000E063934207D94FF4437205490848BDE803
:107A5000084024F0D9BD08BDF0E300E044900020C8
:107A6000984D0308424E03080CED00E048900020BA
:107A70006C4E030808B501214FF4807000F04CFCF7
:107A800000214FF48070BDE8084000F045BC0000C4
:107A900043680A7923F0407323F4807343EA022396
:107AA0000A6813434360D1E9032313438A6810B57E
:107AB00013438468084A224013434A7943EA420345
:107AC00083600A7DC36A013A23F47003D2B243EAA9
:107AD0000253C36210BD00BFFDF7FFC00023036067
:107AE00003714371C0E902330361012303757047D9
:107AF00010B5D0E90032064913434C68054A2240CC
:107B0000134382681343C26813434B6010BD00BF28
:107B100000230140E030FCFF0023C0E90033C0E94E
:107B200002337047836819B143F0010383607047E3
:107B300023F00103FAE7092970B51BD9A1F10A0462
:107B4000C56804EB44040726A64025EA060503FAA7
:107B500004F42C43C460062A18D8013A436B02EBA4
:107B600082021F24944023EA040301FA02F21A431A
:107B7000426370BD056901EB41060724B44025EA64
:107B8000040503FA06F42C430461E4E70C2A0CD83C
:107B9000073A036B02EB82021F24944023EA04039A
:107BA00001FA02F21A430263E3E70D3AC36A02EBF9
:107BB00082021F24944023EA040391401943C162C6
:107BC000D7E7836843F0804383607047C06C80B21E
:107BD00070470368194214BF01200020704700005D
:107BE000044B9A6811B110439860704722EA000074
:107BF000FAE700BF002004E0036823F001030360FC
:107C00000023036043608360C360036121234361F9
:107C10002A4B984203D13D2243F8082C7047284B49
:107C2000984204D14FF4746243F8202C7047254BDE
:107C3000984204D14FF4741243F8382C7047224B09
:107C4000984204D14FF0746243F8502C70471F4B98
:107C5000984203D11E4A43F8642C70471D4B98424A
:107C600003D11D4A43F87C2C70471C4B984203D12A
:107C70001B4A43F8942C70471A4B984204D14FF09A
:107C80003D5243F8AC2C17E0174B9842C3D0174B2A
:107C90009842C7D0164B9842CCD0164B9842D1D0C0
:107CA000154B9842D6D0154B9842DAD0144B9842D7
:107CB000DED0144B9842E2D0704700BF1060024003
:107CC00028600240406002405860024070600240FC
:107CD0003D00002088600240400F0020A06002406C
:107CE00000003D20B8600240106402402864024059
:107CF000406402405864024070640240886402405C
:107D0000A0640240B86402400368134A10B51A40E8
:107D1000CC680B6823434C6923438C692343CC69AB
:107D200023430C6A23434C6A23438C6A23434C6BE2
:107D300023438C6B234313430360D1E90B34426923
:107D4000234322F00702134343610B6943604B68EE
:107D500083608B68C36010BD3F801CF0036819B15D
:107D600043F001030360704723F00103FAE7416029
:107D70007047406880B27047006800F001007047AB
:107D800010B50A4B0A4C0B4AA04294BF1846104645
:107D90008B004CBF4368036821F0F02121F0821171
:107DA000194214BF0120002010BD00BF0060024036
:107DB0000F6402400064024010B5084B084A094CA9
:107DC000A0428CBF1846104621F0F02323F0821306
:107DD0008A004CBFC360836010BD00BF00640240D6
:107DE000006002400F6402400B0612D5436952B195
:107DF00043F080038029436104D0036801F01E0131
:107E000019430160704723F080038029436104D146
:107E100070478029F6D0002AEFD1036801F01E01D7
:107E200023EA0101EDE70000114B124A10B5124C94
:107E3000A04288BF1A4621F0F02323F0C31393B168
:107E4000006800EAD12000F01E0388004CBF506893
:107E5000106821F0F02121F08211084002D0181C96
:107E600018BF012010BD436903F08003EDE700BF98
:107E700000640240006002400F640240FFF79CBFB4
:107E80000268837910B5D243002B2FD01B4B1968A1
:107E90000A401A605A68016822EA01025A600279AF
:107EA000046802F1804202F59E321168214311609C
:107EB0009A68016822EA01029A600168DA6822EA97
:107EC0000102DA6042790168102A07D19A680A43F0
:107ED0009A60DA6801680A43DA6010BD02F18043F3
:107EE00003F59E331A680A431A60F6E7037903F133
:107EF000804303F59E3319680A40F5E7003C0140D2
:107F0000034B5B69034214BF01200020704700BF90
:107F1000003C0140014B5861704700BF003C0140EC
:107F2000FFF7EEBF014B5861704700BF003C0140B6
:107F3000F0B50022012603250B6806FA02FC3CEA94
:107F400003032ED15400076805FA04F3DB431F40F6
:107F500007600F79D0F800E0A74047EA0E070760F6
:107F60000F79013F012F11D887683B4083604B791F
:107F70008768A3403B438360436823EA0C03436064
:107F80008B79476893409BB23B434360C36805FAD3
:107F900004F723EA0703C360CB79C768A3403B43D8
:107FA000C3600132102AC7D1F0BD4FF6FF730360E2
:107FB0000023037143718371C371704703691942D0
:107FC00014BF012000207047018370474183704730
:107FD0000AB1018370474183704710B501F0070370
:107FE000C90800EB81009B00016A0F249C4021EA34
:107FF00004010162016A9A400A43026210BD000056
:1080000008B5144B98420BD101214FF4001000F039
:1080100077F900214FF40010BDE8084000F070B976
:108020000D4B984208D101214FF4800000F068F90F
:1080300000214FF48000EFE7084B984208D101215E
:108040004FF4000000F05CF900214FF40000E3E77A
:1080500008BD00BF0054004000580040005C0040D4
:108060007FB5868826F03F060446360468460D46EE
:10807000360C00F0D1F8029A2949B2FBF1F188B22E
:108080000643A6802388274E23F001031B041B0C04
:1080900023802B68B3421ED85B000130B2FBF3F3A0
:1080A0009BB2042B80B238BF04232084A38323888F
:1080B00043F0010323802388AA88698923F481631C
:1080C0000A4323F0020313432380AB892A89134315
:1080D000238104B070BDEE884BF6FF7086421BBF53
:1080E0001920434303EB4303B2FBF3F315BF9BB2E9
:1080F000B2FBF3F343F480439BB2C3F30B020AB920
:1081000043F001034FF496724A434FF47A7192FBA5
:10811000F1F2013292B243F400432284C6E700BF79
:1081200040420F00A086010022B141F0010189B256
:108130000182704701F0FE01F9E7038819B143F4A9
:1081400080630380704723F480631B041B0CF8E7F3
:1081500001827047008AC0B27047838819B143F426
:1081600000638380704723F400631B041B0CF8E753
:10817000838819B143F480538380704723F480537C
:108180001B041B0CF8E7838812B1194381807047E8
:1081900023EA0101FAE782B00023009301930B0F59
:1081A00001900093009B21F07F4153B1019B143358
:1081B0000193019B1B680B4214BF0120002002B0F9
:1081C0007047019B090C1833F2E7C94389B28182D9
:1081D00070470000014B1860704700BF003000403E
:1081E000014B5860704700BF00300040014B986061
:1081F000704700BF00300040024B4AF6AA221A60C6
:10820000704700BF00300040024B4CF6CC421A6071
:10821000704700BF0030004010B51D4A936803F05E
:108220000C03042B1AD0082B1AD01A4B184A0360DF
:1082300093681949C3F30313CC5C0368E3404360BC
:108240009468C4F382240C5D23FA04F48460926879
:10825000C2F342328A5CD340C36010BD0F4BE5E7E6
:108260005468516852686302C2F3881201F03F01FA
:108270004CBF0A4B074BB3FBF1F35343044A52681C
:10828000C2F3014201325200B3FBF2F3CEE700BF6A
:10829000003802400024F4000400002000127A009C
:1082A000044B1A6B11B110431863704722EA0000A7
:1082B000FAE700BF00380240044B5A6B11B110437B
:1082C0005863704722EA0000FAE700BF0038024016
:1082D000044B1A6C11B110431864704722EA000075
:1082E000FAE700BF00380240044B5A6C11B110434A
:1082F0005864704722EA0000FAE700BF00380240E5
:10830000044B1A6A11B110431862704722EA000048
:10831000FAE700BF00380240044B5A6A11B110431B
:108320005862704722EA0000FAE700BF00380240B6
:108330004209012A074B07D11B6800F01F0023FAEE
:1083400000F000F001007047022A0CBF1B6F5B6F4A
:10835000F3E700BF00380240024A536F43F08073D6
:10836000536770470038024008B5274B98420BD13D
:1083700001214FF48050FFF7CFFF00214FF48050D0
:10838000BDE80840FFF7C8BF204B98420BD1012140
:108390004FF48040FFF7B4FF00214FF48040BDE868
:1083A0000840FFF7ADBF1A4B984208D101214FF4A6
:1083B0000040FFF7A5FF00214FF40040EFE7154B09
:1083C000984208D101214FF40050FFF7A5FF00218A
:1083D0004FF40050D4E7104B984208D101214FF4DC
:1083E0008010FFF799FF00214FF48010C8E70B4B76
:1083F000984208D101214FF40010FFF78DFF0021B2
:108400004FF40010BCE708BD0030014000380040C8
:10841000003C004000340140005001400054014045
:10842000038810B503F441524C880B8823438C8891
:108430002343CC8823430C8923434C8923438C89D1
:108440002343CC89234313430380838B23F40063AA
:108450001B041B0C83830B8A038210BD038819B194
:1084600043F040030380704723F040031B041B0CC0
:10847000F8E78089704781817047838812B119437A
:108480008180704723EA0101FAE70389194214BF8A
:1084900001200020704730B5048C24F0010424042E
:1084A000240C0484048B058C24F0F304240442EA95
:1084B0000313240C1C4325F00A031B041B0C41F07E
:1084C0000101A4B20B430483038430BD30B5048C96
:1084D00024F010042404240C0484058B048C120260
:1084E00042EA033324F0A00225F4407512042D055E
:1084F000120C2D0D42EA01111D4341F01001ADB2E5
:1085000089B20583018430BD1C4A038890429BB226
:1085100012D002F5806290420ED0B0F1804F0BD0A5
:10852000A2F58032904207D002F58062904203D0DB
:1085300002F58062904203D14A8823F0700313430E
:108540000F4A904208D002F5806290421FBF23F488
:1085500040730A899BB2134303804B68C3620B8844
:108560000385064B984203D003F58063984201D1FE
:108570008B7A038601238382704700BF000001408D
:108580000010004000234FF0FF32C0E900320381A9
:1085900083727047018582827047038819B143F066
:1085A00001030380704723F001031B041B0CF8E751
:1085B000038C23F001031B041B0C038470B5038C94
:1085C0008288048B0D884E8824F073042404240CC4
:1085D0002C4323F002038D891B0435431B0C2B43D2
:1085E0000D4DA84292B203D005F58065A8420DD189
:1085F000CD894E8A23F008032B438D8823F0040392
:108600002B430D8A22F4407235432A43828004832F
:108610008A684263038470BD00000140038C23F02C
:1086200010031B041B0C038470B5038C8488028B1D
:108630000D884E8822F4E6421204120C42EA05220A
:1086400023F020038D891B0435431B0C43EA0513DB
:10865000114DA842A4B292B29BB203D005F5806539
:10866000A84213D1CD894E8A23F0800343EA051333
:108670004FF6BF751D408B8845EA03130D8A24F41D
:108680004064354344EA85049BB2A4B284800283EB
:108690008A688263038470BD00000140038C23F468
:1086A00080731B041B0C038470B5038C8288848B3D
:1086B0000D884E8824F073042404240C2C4323F4E6
:1086C00000738D891B0435431B0C43EA0523114DB0
:1086D000A84292B29BB203D005F58065A84213D19F
:1086E000CD894E8A23F4006343EA05234FF6FF3514
:1086F0001D408B8845EA03230D8A22F440523543FE
:1087000042EA05129BB292B2828084838A68C26375
:10871000038470BD00000140038C23F480531B04CC
:108720001B0C038470B5038C8488828B0D884E8863
:1087300022F4E6421204120C42EA052223F400530A
:108740008D891B0435431B0C43EA05330A4DA842AF
:10875000A4B292B29BB203D005F58065A84205D1C0
:108760000D8A24F4804444EA8514A4B28480828370
:108770008A680264038470BD000001404163704751
:1087800081637047C163704701647047038B23F0B6
:1087900008031B041B0C194301837047038B23F44C
:1087A00000631B041B0C43EA012189B2018370475B
:1087B000838B23F008031B041B0C19438183704730
:1087C000838B23F400631B041B0C43EA012189B251
:1087D0008183704700230122038043808280C3800D
:1087E00003817047406B7047806B7047006C704727
:1087F000038B23F00C031B041B0C0383038B194313
:1088000001837047038B23F440631B041B0C038319
:10881000038B43EA012189B201837047838B23F0E4
:108820000C031B041B0C8383838B194381837047C8
:10883000838B23F440631B041B0C8383838B43EAE9
:10884000012189B281837047F8B50E460D88B28840
:108850004988338935B9FFF71EFEF188BDE8F84035
:10886000FFF7C6BF042D06D1FFF730FEF188BDE843
:10887000F840FFF7C7BF082D058C1CD125F4807583
:108880002D042D0C0584878B058CBFB227F0F307D0
:108890003A43ADB242EA031325F4206242F48072F7
:1088A00042EA01219BB289B283830184F188BDE849
:1088B000F840FFF7B3BF25F480552D042D0C058437
:1088C000878B058C25F4005527F440776D043F0510
:1088D0001B036D0C3F0D45F4805543EA02233B43D7
:1088E00045EA01319BB289B283830184F188BDE8F6
:1088F000F840FFF79DBFB0F8443021B143F4004386
:10890000A0F844307047C3F30E03F9E7838912B12E
:1089100019438181704723EA0101FAE7038A19426A
:1089200014BF012000207047038A828911EA0300E6
:1089300092B203D00A4214BF012000207047C943FD
:1089400089B201827047FFF7E1BF000030B5038AAA
:10895000CA889BB223F440531343038283890D4694
:1089600023F4B0528B8809890B43698922F00C02E9
:108970000B4313438381838AAA899BB223F44073F8
:10898000134385B0838204466846FFF745FC1A4BC3
:108990009C4203D003F580639C4222D10399A289B3
:1089A0001923100403FB01F3A28929684FF0640521
:1089B0004CBF490089001204B3FBF1F1B1FBF5F3A0
:1089C0004FEA031005FB13130DD5DA003232B2FB68
:1089D000F5F202F0070242EA00039BB2238105B0E0
:1089E00030BD0299DBE71B013233B3FBF5F303F033
:1089F0000F030343F1E700BF00100140838919B161
:108A000043F400538381704723F400531B041B0C71
:108A1000F8E7C1F30801818070478088C0F308003F
:108A20007047838A12B119438182704723EA01019A
:108A3000FAE710B5C1F3421401F01F03012C4FF007
:108A4000010101FA03F105D10C3003683AB1194371
:108A5000016010BD022C0CBF10301430F5E723EA82
:108A60000101F5E7C94389B201807047C1F34212A1
:108A700010B5012301F01F04012A03FA04F30DD1FC
:108A800082891340028892B26BB10123090A03FA6A
:108A900001F10A4214BF1846002010BD022A0CBF83
:108AA000028A828AEDE71846F7E7000040F0BF60CF
:108AB000024B40F40030D860704700BF00ED00E08A
:108AC00010B5C378027803B3154BD9684378C9430E
:108AD000C1F30221C1F10404E4B2A340DCB20F23CC
:108AE00043FA01F183780B400E4923430A441B01EA
:108AF000DBB282F8003303780122580903F01F0328
:108B000002FA03F341F8203010BD5309012102F0AD
:108B10001F0201FA02F22033024941F82320F3E751
:108B200000ED00E000E100E010B501F0030301F00A
:108B3000FC0101F1804101F59C319B008A680F2402
:108B40009C4022EA04028A608A6898401043886048
:108B500010BD000037B50023114C019305460320DA
:108B60000CF05FFC2A68013C1369019314D0019B4F
:108B7000002BF4DA019B43F001030193019B136185
:108B80002968074B0A690192013B02D0019AD2077A
:108B9000F8D403200CF045FC002003B030BD00BF2A
:108BA000410D030010B5C47844B900EB82000333D3
:108BB000D0F8D0009B102246934201D1002010BD76
:108BC00051F8224004600132F6E710B50332D0F8C4
:108BD000D03092100020904202D101EB800010BDF5
:108BE0001C6841F820400130F5E70000012330B552
:108BF000012943804FF04003838039D14FF48163D2
:108C000003804FF4A073C38002230372C1724FF03C
:108C1000A04303F500624478026100F11802C360CA
:108C200003F5106102EB8404A2422DD103F58062AA
:108C30004261044603F58862C0F8CC2014F8902BFA
:108C400003EB421503F5A06105F5A065A94222D109
:108C500003EB023203F5805100F1D00402F580529B
:108C600091421CD103F56063C0F80C31002030BD87
:108C700041B940F20C6303804FF4A063C380C1721A
:108C8000094BC6E70023C4E742F8041B01F5007551
:108C900095632031C8E744F8041B2031D6E744F837
:108CA000041B01F58051DBE70000044038B50546A0
:108CB00000242B7A50F80C2F012B2BD1936B697A5F
:108CC00064F3104309B143F480139363EA68D368F3
:108CD0006FF386136FF396536FF351436FF3D343E0
:108CE000D360FFF737FFEB78012B06D1052363F341
:108CF0004404EB6844F020049C60EB78012B07D11E
:108D0000EB689C68052262F3440444F020049C60F4
:108D1000002038BDD36843F04003D360FFF71AFF4B
:108D20006B7AEA68002B0CBF4FF434134FF47413C2
:108D3000936314200CF07FFBDFE7C268936843F075
:108D40000103936000207047C268936823F0010319
:108D5000936000207047000007B500230193019B3A
:108D600043F020030193019B61F38A130193C368CD
:108D7000019A1A61C168074B0A690192013B02D04E
:108D8000019A9206F8D403200CF04BFB002003B0AC
:108D90005DF804FB410D030007B500230193019B1F
:108DA00043F010030193C368019A1A61C168074B2D
:108DB0000A690192013B02D0019AD206F8D403203D
:108DC0000CF02FFB002003B05DF804FB410D030005
:108DD00008B5C268D36801296FF35D736FF39E73A2
:108DE00007D143F00053D36032200CF024FB002065
:108DF00008BD0029F7D143F08043F4E7C368586900
:108E0000C04300F001007047C36858699B6918406F
:108E100070470269136861F3010313607047000033
:108E200010B5C26800239361C1686FF080424A6147
:108E3000C1684FF0FF344C60C1684A61C26809499B
:108E40009161C2789A4208BF1023C26843F470133C
:108E5000916943F4605343F008030B43936100208E
:108E600010BD00BF0008008070B5D0F80C310021A3
:108E700019600269136861F3CC231360C37A012B74
:108E8000044616D10321FFF7C4FFC36880225A624B
:108E9000C36802F500129A62C2682D4BC2F8043111
:108EA000C2682C4BC2F80831C2684FF4A073C2F8F4
:108EB0000C3110212046FFF74FFF2046FFF76CFFD3
:108EC0002269002313612269536122694FF0FF3147
:108ED000916122691846D361FF2504F11802617877
:108EE000994217D8002304F154021846FF256178EF
:108EF00099421ED82269136943F480731361E378A1
:108F0000012B02BF2369144A1A632046FFF788FF2A
:108F1000002070BD11680E68002EACBF00264FF017
:108F200090460E601168086152F8041B01338D6091
:108F3000D5E711680E68002EACBF00264FF09046B2
:108F40000E601168086152F8041B01338D60CEE792
:108F5000A0008000200120000301810003699B68BC
:108F6000C3F34103022B04D001D8012B03D102200B
:108F700070470120704703207047036981699A6830
:108F80000B68C2F34102022A06BF032262F30A03FE
:108F90006FF30A030B600269536843F480735360F4
:108FA0000020704730B50B784D7801229A4000EBD5
:108FB0008303012D0CBF9D695D6D2B6892B24FF04C
:108FC00000040CBF62F30F0462F31F441A040DD4B3
:108FD0008A6862F30A03CA7862F39343CA8862F329
:108FE000995343F0805343F400432B600369DA69DB
:108FF0001443DC61002030BD30B50B784978012284
:109000009A4000EB830301290CBF9B695B6D4FF015
:1090100000052C466FF3CF351D6092B20CBF62F392
:109020000F0462F31F440269D36923EA0403D36186
:10903000002030BDF8B54E780A784B69012E00EB60
:10904000820247D195692A682C6963F312043BBBFD
:1090500066F3DC442C61C3780C78012B2DD100EB36
:1090600084030C699B695C61CB78012B07D1036990
:109070009B68DB0554BF42F0005242F080520B78EF
:1090800000EB830342F004429B691A60CB78012B0A
:1090900004D18B8A0A78C968FFF784FD0020F8BDE7
:1090A0008E683344013BB3FBF6F363F3DC44CB78C7
:1090B000012B08BF63F35E74CCE7CB78012BD3D0D0
:1090C0004B69002BD0D0056901236E6BA34033435D
:1090D0006B63C9E7566D8F6832683469C7F3120550
:1090E000EBB965F31204012363F3DC443461C37804
:1090F000012B05D10B780C6900EB83035B6D5C6180
:10910000CB78012B03D14B79ABB142F000520B78F5
:1091100000EB830042F00442436D1A60BEE73B441B
:10912000013BB3FBF7F3C3F3090363F3DC446B4385
:1091300063F31204DAE742F08052E8E7F7B54F78BC
:109140004D69012F3BD18669346833690093DAB2E7
:10915000C3F307431DBB65F306028DF8002067F3D8
:10916000C4038DF80230009B3361C378012B05D115
:109170000B780A6900EB83039B695A6144F004444D
:109180003460C37843B94B6933B102690978506BD5
:1091900001238B4003435363002003B0F0BD8F686D
:1091A000AF4234BF67F3060265F306028DF8002074
:1091B0004FF0010238BF4F6162F3C403D1E70E786C
:1091C000D1F808C000EB86060CF07F07736D1C68B1
:1091D0001B690093DAB2C3F30743E5B967F30602EC
:1091E0008DF80020012262F3C4038DF80230736D04
:1091F000009A1A61C378012B05D10B780A6900EB3C
:1092000083035B6D5A610B7800EB830044F00444E8
:10921000436D1C60C0E7C1F814C0DFE74A780B78E3
:10922000012A00EB83000AD182691368002B01DA5E
:1092300043F0804343F40013136000207047426DF5
:109240001368F7E70B784A78C97800EB8300012AA6
:109250000CBF8269426D136802396FF355530129BF
:1092600098BF43F0805313600020704703699869EA
:10927000DB691840000C704700EB81014B6D9A6868
:10928000036958691040704703699869DB691840A1
:1092900080B27047426D094B136182B00093C3786E
:1092A000012B08D1436D00F2CC525A61436D1A680C
:1092B0004FF080221A6002B0704700BF180008C04B
:1092C0002DE9F04F85B00446FFF798FD18B900204E
:1092D00005B0BDE8F08F2046FFF796FD80460028D8
:1092E000F5D0C0F3074313F0080000930CD02046DC
:1092F000FFF7BCFFDFF89092074600254FF0020B06
:10930000002F40F0F8800120009B5D070AD5204621
:10931000FFF7BAFF254681460026B9F1000F40F05D
:10932000378101205FFA88F5AB0742BFE36802226C
:109330005A61B8F1000F19DAA37A43B1D4F80C31AD
:10934000D4F80C216FF341036FF30003136022691B
:10935000536823F0010353608B4B1B6820469B69C5
:109360009847E3684FF000425A610120C8F307288C
:1093700018F0080F2FD000238DF80F3094F8123119
:109380008DF80F30804B1B6820465B699847236936
:10939000E2689B684FF400615161A27AD2B1DF07A5
:1093A00018D594F81531012B14D19DF80F30032BEB
:1093B00010D1D4F80C21136843F001031360D4F8E2
:1093C0000C21136843F003031360704A136943F0E0
:1093D0000603136101202E0708D56B4B1B6820463E
:1093E000DB689847E36808225A610120E90616D530
:1093F000E268936923F010039361E3681D6AC5F383
:109400004343022B05F00F0700F05281062B00F0BA
:109410006A81E268936943F010039361012018F0B8
:10942000100F2FD02269536823F0010353600021ED
:109430002046FFF791FC04F118020023FF21607819
:109440008342C0F05C8123694FF0FF329A61236947
:109450004FF00112DA6122690B2353612269136113
:10946000226913686FF30A1313602046FFF712FF97
:10947000E3684FF480525A61434B1B6820461B69D6
:109480009847012018F0200F19D02046FFF775FDEE
:10949000E3682046DD68FFF761FD032840F0368170
:1094A0000023A3704FF40073A380092363F38D2579
:1094B000E368DD60E3684FF400525A610120009BCD
:1094C000DA0609D5304B1B682046DB699847E3680C
:1094D0004FF480125A610120009B9B067FF5F8AE85
:1094E000294B1B6820461B6A9847E3684FF400121B
:1094F0005A610120ECE6F9071CD55FFA85FA51465E
:109500002046FFF7B9FEC20717D40646B30741BF8E
:1095100004EB850302265B6DC3F808B0360709D556
:10952000D9F8003020469B68984704EB8503082251
:109530005B6D9A6001357F08E2E604EB8502012647
:10954000516D8E60E178B1420BD1516D24200969D3
:1095500000FB0522C1F31200D2F87C13091AC2F8ED
:109560008C13D9F800205146126820469047E378C2
:10957000012BCBD1002DC9D194F81131052BC5D1C8
:109580002046FFF787FEC1E74000002000ED00E025
:1095900019F0010F6CD023695FFA86FA1A695F6BC4
:1095A00004EB8A0327FA0AF79B69FF019B68FFB265
:1095B00017431F40F90715D504EB860301279B6964
:1095C0009F60554B1B6851465B6820469847E3787F
:1095D000BB4207D136B994F81131042B02D1204691
:1095E000FFF758FE3A0741BF04EB860308279B6943
:1095F0009F60FB0641BF04EB860310279B699F60B9
:10960000780641BF04EB860340279B699F60B9073A
:1096100041BF04EB860302279B699F603A0627D56A
:10962000D5F83421D5F830319B1AD5F8242193424E
:1096300028BF134603339B08019304EB860BDBF82A
:109640001830019A9B699BB2934206D9D5F8343100
:10965000D5F830719F4200D97FB922690121536B3F
:10966000B14023EA01035363DBF8183080229A608B
:1096700001364FEA590928354FE6FF1AD5F824314B
:10968000D5F828119F4228BF1F46FB1C9B08019359
:109690005246BBB22046FFF785FAD5F828313B4445
:1096A000C5F82831D5F834311F44C5F83471C6E700
:1096B00047F6F0732B423FF4ACAE282606FB074674
:1096C000C5F30A152A46D6F880132046FFF77DFA1F
:1096D000D6F880332B44C6F88033D6F88C331D443B
:1096E000C6F88C5395E6082204F2CC512046282671
:1096F000FFF76BFA06FB0746C5F30A15EDE752F8CC
:10970000040B8160906B0133816098E60123A370A4
:109710004023A3800523C9E6400000200148FFF74D
:10972000CFBD00BF682F001070B50446FFF75EFA8A
:1097300000230121657884F8121184F8143104F5AE
:109740008E72184640269D4202F128021AD8002245
:1097500004F55D7311464020954203F128031FD89C
:109760002046FFF7F1FA2046FFF7A0FA0021204635
:10977000FFF72EFB2046FFF777FB2046BDE8704041
:10978000FFF7DBBA02F8283C22F8223C02F8271C3B
:1097900002F8250C42E9086042F8140C0133D2E7C4
:1097A00003F8282C23F8222C03F8271C03F8251C87
:1097B00043E9080143F8141C0132CDE770B54EB2FD
:1097C00001F07F05002E4FF02804B5BF04FB050112
:1097D00004FB010101F58E7101F55D71002EB8BF2A
:1097E000CD80022BCB704FEAD67408BF00230D70DA
:1097F0004C708A6008BF0B71FFF7D4FB002070BD6E
:109800004BB2002B10B54FF0280201F07F04B5BF1A
:1098100002FB040102FB010101F58E7101F55D718E
:10982000DB0F0C704B70FFF7E7FB002010BD70B52D
:1098300001F07F04282606FB040506FB0401C5F899
:109840008833002385F87443C5F88023C5F88C332A
:1098500085F87533C37806FB0404012B08BFC5F8EF
:10986000842394F8743301F55D711BB9FFF766FC2E
:10987000002070BDFFF7DEFBFAE770B501F07F0551
:10988000282404FB050104FB05040126C4F8282153
:10989000C4F82C21002201F58E7184F81D6184F832
:1098A0001C51C4F83421C4F830311DB9FFF746FC0F
:1098B000002070BDFFF7BEFBFAE74BB2002B10B5DE
:1098C0004FF0280201F07F04B5BF02FB040102FB48
:1098D000010101F58E7101F55D710122DB0F8A70C6
:1098E0000C704B70FFF79AFC002010BD38B54BB2DE
:1098F00001F07F05002B4FF02802B5BF02FB0501E8
:1099000002FB010101F58E7101F55D710024DB0F91
:109910008C700D704B70FFF795FC204638BD0269C6
:10992000002361F30A1311680B431360704710B5ED
:1099300004461346C4F83C21C4F83821022280F8BA
:1099400011210A460021FFF798FF002010BD08B53D
:1099500013460A460021FFF790FF002008BD08B516
:1099600013460A460021FFF762FF002008BD10B52C
:10997000042380F81131002304461A461946FFF7E4
:109980007CFF2046FFF786FC002010BD10B50523A4
:1099900080F81131002304461A461946FFF747FFA5
:1099A0002046FFF777FC002010BD10B5802104464B
:1099B000FFF783FF20460021FFF77FFF2046BDE829
:1099C0001040FFF767BC000073B54B7804460D46A6
:1099D000092B6CD8DFE813F0BE00FC006B00CE0052
:1099E0006B0063000A006B00B00083004B881E0A06
:1099F000022E25D0032E2ED0012E58D1D0F8EC35D2
:109A000080781B680DF106019847EB88402B03D046
:109A100094F81231012B02D10823ADF80630BDF8BD
:109A20000620002A56D0EB88002B53D09A4228BF3C
:109A30001A46ADF8062001462046FFF778FF49E0B8
:109A4000D0F8E43580789B6A0DF10601984746709E
:109A5000C4F8F005E3E7DBB2052B28D8DFE803F014
:109A6000030B0F13171BD0F8EC355B68A0780DF1D2
:109A700006019847D3E7D0F8EC359B68F6E7D0F8B5
:109A8000EC35DB68F2E7D0F8EC351B69EEE7D0F88F
:109A9000EC355B69EAE7D0F8EC359B69E6E78B8843
:109AA0002BB9CB881BB990F81231032B03D1204678
:109AB000FFF77BFF0EE08D7805F07F0580F81451ED
:109AC0002946FFF72CFF2046FFF751FF2DB1022357
:109AD00084F81231002002B070BD0123F8E78978C4
